:020000040800F2
:10000000382100209D010008E1120008A511000818
:10001000DD120008D5020008A1170008000000004A
:10002000000000000000000000000000AD14000807
:10003000D90200080000000011130008E1140008B4
:10004000B7010008B7010008B7010008B7010008B0
:10005000B7010008B7010008B7010008B7010008A0
:10006000B7010008B7010008B7010008B701000890
:10007000B7010008B7010008B7010008B701000880
:10008000B7010008B7010008B7010008B701000870
:10009000B7010008B7010008B7010008B701000860
:1000A000B7010008B7010008B7010008B701000850
:1000B000B7010008B7010008B7010008B701000840
:1000C000B7010008B7010008B7010008B701000830
:1000D000B7010008B7010008B7010008B701000820
:1000E000B7010008B7010008B7010008B701000810
:1000F000B7010008B7010008B7010008B701000800
:10010000B7010008B7010008B7010008B7010008EF
:10011000B7010008B7010008B7010008B7010008DF
:10012000B7010008B7010008B7010008B7010008CF
:10013000B7010008B7010008B7010008B7010008BF
:10014000B7010008B7010008B7010008B7010008AF
:10015000B7010008B7010008B7010008B70100089F
:10016000B7010008B7010008B7010008B70100088F
:10017000B7010008B7010008B7010008000000003F
:10018000B7010008B7010008DFF80CD000F090F8C4
:1001900000480047713D000838210020064880478C
:1001A00006480047FEE7FEE7FEE7FEE7FEE7FEE75C
:1001B000FEE7FEE7FEE7FEE781150008890100087B
:1001C0002DE9F05F0546002092469B46884606468C
:1001D000814640241BE0284641464746224600F01F
:1001E00057F853465A46C01A914110D31146184643
:1001F000224600F03EF82D1A67EB01084F462246D2
:100200000120002100F035F817EB00094E41201EB7
:10021000A4F10104DFDC484631462A464346BDE8E6
:10022000F09FD2B201E000F8012B491EFBD27047CB
:100230000022F6E710B513460A4604461946FFF7B2
:10024000F0FF204610BD30B50B46014600202022AD
:10025000012409E021FA02F59D4205D303FA02F5D3
:10026000491B04FA02F52844151EA2F10102F1DC33
:1002700030BD202A04DB203A00FA02F1002070474A
:100280009140C2F1200320FA03F3194390407047D4
:10029000202A04DB203A21FA02F00021704721FADB
:1002A00002F3D040C2F12002914008431946704742
:1002B000064C074D06E0E06840F0010394E80700B3
:1002C00098471034AC42F6D3FFF762FF3CF10208C6
:1002D0005CF10208FEE70000704700007047000074
:1002E00080B5002200F002F880BD000080B540F229
:1002F000540EC2F2000E9EF80930002B1CBF0120E4
:1003000080BD9EF80930844600200EF803009EF858
:1003100009300EEB8303C3F804C09EF80930734420
:100320001A729EF80920531C30328EF809300A7078
:1003300042F63A72A1F80120C87080BD2DE9F04F55
:1003400083B000F13E4202F1FF724FEAB22241F661
:1003500000470192C4F202070822012600254FF04F
:1003600000084FF00009B84208BF0722009209E0D8
:1003700009F1010908F10408B9F1100F05F10205AE
:1003800000F0A3800C6806FA09FB14EA0B0CEFD00E
:10039000D1F804A0BAF1120F17D806FA0AF414F033
:1003A000061F12D084680322CF6802FA05FE24EAF1
:1003B0000E04AF40274387604768CAF3001427EA5A
:1003C0000B0704FA09F4274347600322C76802FABF
:1003D00005F48A68A743AA403A434AF010076FEA37
:1003E000040E122FC26010D16FF0030202EA59020C
:1003F0000244176A08F01C060F230C69B34027EA71
:100400000303B44001262343136202684B6802EAE7
:100410000E0203F00307AF403A43DB000260A7D5AA
:10042000002243F644030292C4F202031A6843F620
:10043000004442F480421A601A68C4F2010402F4D3
:1004400080420292029A29F003024FF6084A22449F
:10045000CFF6FF7A52F80A3008F00C070F26BE409C
:1004600023EA060E019B009E072B38BF1E4606FAA4
:1004700007F747EA0E0342F80A3022684B6842EA5F
:100480000C07DE0358BF22EA0C07276062689E0350
:1004900042EA0C0758BF22EA0C076760A268DE0236
:1004A00042EA0C0758BF22EA0C07A76043F60C4744
:1004B000C4F201073A689B024FF0010642EA0C03BE
:1004C00058BF22EA0C033B6052E703B0BDE8F08F4F
:1004D000002A08BF090481617047000041F2301012
:1004E000C2F200000068704740F2200041F2301173
:1004F000C2F20000C2F2000100780A6810440860ED
:100500007047000080B543F60040C4F20200016865
:1005100041F400710160016841F48061016001688B
:1005200041F480710160032000F05CF8002000F0CD
:1005300005F800F02BF8002080BD0000B0B540F2B7
:100540002002C2F2000240F208011278C2F2000159
:100550004FF47A730968B3FBF2F20446B1FBF2F18F
:10056000084600F0B1FD0F2C4FF001050CD858B92A
:100570004FF0FF3021460022002500F023F840F222
:100580002400C2F2000004602846B0BD82B0002002
:1005900043F640010190C4F202014A6842F48042ED
:1005A0004A604A6802F480420192019A0090086809
:1005B00040F080500860086800F08050009000987B
:1005C00002B0704770B514460D46064601F09CF91E
:1005D0002946224600F086FE0146304601F09CF98D
:1005E00070BD000080B501F0A9F980BD2DE9F04192
:1005F000002800F08B8043F60808C4F20208044685
:10060000D8F8F8030D4600F00F00884207D288F8AA
:10061000F853D8F8F80300F00F00A84276D120680C
:10062000810717D5410705D5D8F8001041F4E051EE
:10063000C8F80010010705D5D8F8001041F4604152
:10064000C8F80010D8F80010A26821F0F00111439A
:10065000C8F80010C0073FD1D8F8F80300F00F0029
:10066000A84207D988F8F853D8F8F80300F00F002B
:10067000A8424BD12068410707D5D8F80010E2689E
:1006800021F4E0511143C8F80010000708D5D8F84C
:100690000000216920F4604040EAC100C8F8000071
:1006A00000F07EF8D8F8001044F21452C1F30311A0
:1006B000C0F60002515C40F2080220FA01F140F25B
:1006C0002400C2F200000068C2F200021160FFF7CD
:1006D00035FF0020BDE8F0816068811E022907D245
:1006E00058F8081C89015CBF0120BDE8F08110E0CA
:1006F000012807D158F8081C89035CBF0120BDE818
:10070000F08106E058F8081C890702D40120BDE8F2
:10071000F081D8F8001021F003010843C8F8000068
:10072000FFF7DCFE064641F2883700BFD8F800002C
:10073000616800F00C00B0EB810F8DD0FFF7CEFEAA
:10074000801BB842F2D90320BDE8F08140F20800D6
:10075000C2F200000068704780B5FFF7F7FF43F66C
:100760000801C4F20201096844F22452C1F3822153
:10077000C0F60002515CC84080BD000080B5FFF7A4
:10078000E5FF43F60801C4F20201096844F224526D
:10079000C1F34231C0F60002515CC84080BD000088
:1007A00010B543F60404C4F20204606800F00C01C2
:1007B00042F200400829C0F2F40007D0042918BF13
:1007C00010BD41F20020C0F27A0010BD216801F096
:1007D0003F02216823684902C3F3881105D4A1FBB5
:1007E00000010023FFF7ECFC06E041F20020C0F21C
:1007F0007A004843B0FBF2F021680222C1F30141C4
:1008000002EB4101B0FBF1F010BD00002DE9F04119
:1008100082B0002800F097800446007843F6000676
:10082000C007C4F2020641D0B06800F00C000428F2
:1008300005D13068800339D56068B8BB83E0B06803
:1008400000F00C00082802D170684002F1D46568FD
:10085000B5F5803F06D03068B5F5A02F06D140F43D
:1008600080203060306840F4803005E020F4803033
:100870003060306820F480203060FFF72FFE002DBC
:10088000054610D03068800310D4FFF727FE401BC8
:100890006428F7D91AE100BFFFF720FE401B642847
:1008A0004FF003004CD830688003F5D420788007DF
:1008B0001AD5B06810F00C0F09D0B06800F00C0029
:1008C000082840F084807068400200F18080306821
:1008D000800702D5E068012835D13068216920F011
:1008E000F80040EAC1003060207800072FD420785B
:1008F000400742D4A56915B3B06800F00C00082881
:1009000040F09880012D1ED07068E16900F48002EB
:100910008A4218D1216A00F03F028A4213D147F679
:10092000C071626A014091420DD1A16A00F4403267
:100930008A4208D1E16A00F07060884203D1002049
:1009400002B0BDE8F081012002B0BDE8F08160692D
:10095000002840F20000C4F247205AD00121C0F81C
:10096000801EFFF7BBFD0546706F8007BFD4FFF701
:10097000B5FD401B0228F7D9A8E0306C4FF0000805
:10098000C0000CD4CDF80480306C4FF0010840F06A
:1009900080503064306C00F080500190019847F234
:1009A0000007C4F200073868C00525D4386840F451
:1009B00080703860FFF792FD054600BF3868C005BB
:1009C0001AD4FFF78BFD401B0228F7D97EE0E068C0
:1009D000002851D00020C4F2472001210160FFF718
:1009E0007DFD0546306880073FF577AFFFF776FD60
:1009F000401B0228F6D969E0A568012D05D0306FAB
:100A0000052D4DD140F004003067306F40F00100FB
:100A10004CE00021C0F8801EFFF760FD054600BFD6
:100A2000706F80077FF563AFFFF758FD401B02280A
:100A3000F6D94BE00027C4F2472700203866FFF7BD
:100A40004DFD022D05460BD13068800156D5FFF7CC
:100A500045FD401B02284FF00300F5D970E700BFA9
:100A6000306880017FF56BAFFFF738FD401B02282F
:100A70004FF00300F4D963E70020C4F247200021BF
:100A80000160FFF72BFD0546306880077FF52CAF2E
:100A9000FFF724FD401B02284FF00300F4D94FE775
:100AA00020F001003067306F20F004003067FFF75E
:100AB00015FD002D054641F2883713D0306F8007B1
:100AC00013D4FFF70BFD401BB842F7D9032002B047
:100AD000BDE8F081FFF702FD401BB8424FF0030074
:100AE0003FF62EAF306F8007F4D4B8F1000F3FF41B
:100AF00001AF306C20F080503064FBE604F11C053F
:100B00002FCD084340EA8210D9034FF6FF7291437C
:100B1000A1F5803140EA0560084370600120386625
:100B2000FFF7DCFC044600BF306880013FF507AFEB
:100B3000FFF7D4FC001B02284FF00300F4D9FFE6B6
:100B400070B5A8B300268662054690F8510020B91A
:100B5000284685F8506000F02DF8022085F85100F5
:100B600095E807101143036841EA0C0123F04003A4
:100B700003602A69EC691143D5E90523114303F4A5
:100B8000007211432A6A2143AC6A11432143016078
:100B900004216A6A01EA134111434160C16921F4E9
:100BA0000061C16101206E6585F85100304670BD5D
:100BB000012070BD80B586B000220592CDE90322E8
:100BC00043F200010068C4F20101884202920192DE
:100BD00001D006B080BD43F630000092C4F202009E
:100BE000436943F480534361436903F480530093A2
:100BF000009B0092036843F002030360006800F06A
:100C0000020000900098382001900220CDE90202F5
:100C1000032004900520059001F5544001A9FFF739
:100C20008DFB06B080BD00002DE9F04381B0044685
:100C300040681D461746B0F5827F0E4602D1A06877
:100C4000002856D094F85000012803D1022001B0AA
:100C5000BDE8F0834FF0010984F85090FFF73EFCA7
:100C600094F85110012942D18046002E4FF0010026
:100C700018BF002F73D0042084F851000020606555
:100C8000A663A787E7872063A086E086A168206423
:100C9000B1F5004F606404D12068016821F48041FF
:100CA000016020680168490603D4016841F04001F1
:100CB0000160E168E08F49B3002843D06E1C09E071
:100CC000C068A16B21F8020BA163E08F0138E087B7
:100CD000E08FB8B320688168C907F1D1FFF7FEFB48
:100CE000002EF5D0A0EB0800A842F1D328E00220A6
:100CF00035E0042084F851002046314632463B4618
:100D0000009500F0EFF801B0BDE8F083D0B16E1CA3
:100D10000AE0007BA16B0870A06B0130A063E08F3C
:100D20000138E087E08F68B120688168C907F0D199
:100D3000FFF7D4FB002EF5D0A0EB0800A842F1D3BA
:100D400003200CE020462946424600F0E3FA002842
:100D50001CBF20206065606D002818BF01200021A5
:100D600084F8519084F8501001B0BDE8F083000081
:100D70002DE9F04381B0044690F85000012803D1DA
:100D8000022001B0BDE8F0834FF001091D46164670
:100D90000F4684F85090FFF7A1FB94F851100129F9
:100DA00059D18046002F4FF0010018BF002E00F0EF
:100DB0009180032084F85100002060652763A68697
:100DC000E686A063A087E087A168C4E91000B1F5BA
:100DD000004F04D12068016841F48041016020681F
:100DE0000168490603D4016841F04001016061686F
:100DF000731EE268B1FA81F1B3FA83F349095B0922
:100E0000B2F5006F41EA030127D139B1216B09889E
:100E1000C160B81C2063E08E0138E086E08E0028B7
:100E200041D06E1C0AE000BF216B31F8022BC2607A
:100E30002163E08E0138E086E08EA0B320688168EF
:100E40008907F1D4FFF74AFB002EF5D0A0EB08008C
:100E5000A842F1D325E002203CE039B13978017392
:100E6000206B01302063E08E0138E086E08ED0B147
:100E70006E1C0AE0216B09780173206B013020633E
:100E8000E08E0138E086E08E68B1206881688907CD
:100E9000F0D4FFF723FB002EF5D0A0EB0800A8420A
:100EA000F1D3032016E020462946424600F06AFAB4
:100EB00000281CBF20206065A06838B90020009081
:100EC0002068C1680091806800900098606D0028DB
:100ED00018BF0120002184F8519084F8501001B00F
:100EE000BDE8F0832DE9F04381B0044690F850004E
:100EF000012803D1022001B0BDE8F08301201E4685
:100F000015460F4684F85000FFF7E8FA94F85110A0
:100F1000814601290CD06068B0F5827F76D1042922
:100F20004FF0020040F0C680A168002940F0C28066
:100F3000002F4FF0010018BF002D00F0BB80002EE5
:100F400000F0B88094F85100002104281CBF05204F
:100F500084F851006165A563E687A6872763E68666
:100F60002068A686216461640168490603D401688B
:100F700041F0400101606168731EE268B1FA81F1DD
:100F8000B3FA83F3DDF8208049095B09B2F5006FFD
:100F900041EA03013CD139B1216B0988C160B81C19
:100FA0002063E08E0138E086012608F1010500BFCC
:100FB000E08E10B9E08F002866D02068816889072C
:100FC0000CD5E18E012E09D141B1216B002631F8FB
:100FD000022BC2602163E18E0139E1868168C90775
:100FE0000AD0E18F41B1C068A16B012621F8020B44
:100FF000A163E08F0138E087FFF770FA002DD7D0AA
:10100000A0EB09004045D3D3032053E0022051E078
:1010100039B139780173206B01302063E08E0138DB
:10102000E086012608F10105E08E08B9E08F58B38B
:101030002068816889070DD5E18E012E0AD149B15A
:10104000216B002609780173206B01302063E08E4C
:101050000138E08620688168C9070BD0E18F49B16B
:10106000C068A16B01260870A06B0130A063E08FFF
:101070000138E087FFF732FA002DD5D0A0EB090048
:101080004045D1D3032015E0204641464A4600F0B2
:1010900079F918B12020606501200BE0A0680028D4
:1010A0004FF0000006D100902168CA68009289685C
:1010B00000910099012184F85110002184F850100A
:1010C00001B0BDE8F083000080B500F0F1F980BD0B
:1010D000002804BF0120704710B5044690F839007D
:1010E00028B9002084F83800204600F021F8242098
:1010F00084F839002068C16821F40051C16020469D
:1011000000F04CFA2068016921F4904101614169C5
:1011100021F02A014161C16841F40051C160002001
:101120002021E06384F8391084F83A1010BD0000E3
:1011300080B586B000220592CDE9032241F200017C
:101140000068C4F2010188420292019201D006B007
:1011500080BD43F630000092C4F20200436943F0C0
:1011600010034361436903F010030093009B009256
:10117000036843F001030360006800F00100009081
:1011800000984FF4C06001900220CDE902020320D4
:1011900004900720059001F5704001A9FFF7CEF8F3
:1011A00006B080BDFEE7000080B540F20C0040F2C2
:1011B0004E01C2F20000C2F20001FFF791F841F2C5
:1011C0002C11C2F20001087080BD0000F0B587B09C
:1011D000002543F630000695CDE90455CDE90255CA
:1011E0000195C4F202000168002441F0040101608D
:1011F0000168C4F2020401F0040101910199019512
:101200000168012241F08001016001684FF400464D
:1012100001F080010191019901950168012741F0D8
:1012200001010160016801F001010191019901953D
:10123000016841F00201016000684FF4004100F0D4
:101240000200019001982046FFF742F902A92046CA
:10125000CDE90267CDE90475FFF770F807B0F0BD7E
:1012600080B541F2940043F20001C2F20000C4F2E2
:1012700001014FF4827200234FF4007C80E80E00DD
:101280000A21C0E90333C0E9053CC361C0E9083362
:10129000C0E90A31FFF754FC002818BFFFF71EF819
:1012A00080BD000080B541F2EC0041F20001C2F2C5
:1012B0000000C4F2010100234FF00C0C4FF4E132A6
:1012C00080E80E00C0E90333C0E905C3C361FFF73E
:1012D000FFFE002818BFFFF701F880BDFEE7000001
:1012E0007047000000F0070080F00703042B28BFC0
:1012F00004234FF0FF3C03380CFA03F338BF0020FF
:10130000994381400CFA00F022EA0000084370473C
:101310007047000010B5044640689446B0F5827FDF
:101320000A461AD1A168B1F5004F02D0B1F5806F1D
:1013300004D121680B6823F040030B60B0F5827F75
:101340000BD1A068B0F5806F13D120460121634610
:1013500000F062F838B9002010BD20460121634634
:1013600000F05AF860B1606D40F020006065032025
:1013700010BD20468021634600F04EF80028F2D1CF
:10138000002010BD10B582B040F20803C2F2000385
:101390001B6849F68174C1F25E64A3FB043C0446F9
:1013A0004FEA5C504FF47A73584301906068B0F58F
:1013B000827F0DD113460A462046802100F02CF88A
:1013C00078B1606D40F020006065032002B010BD70
:1013D000019830B1019801380190206880680006BA
:1013E000F6D4002002B010BD80B50A46014641F295
:1013F0009400C2F200006423FFF716FC80BD0000D9
:1014000080B50A46014641F29400C2F2000064230E
:10141000FFF7AEFC80BD00002DE9F041804600687A
:101420008068084088423DD11D460E461746541C30
:1014300006E000BFD8F8000080683040B04231D1EB
:10144000002CF7D0FFF74AF8401BB842F2D3D8E996
:1014500000014268B1F5827F22F0E00242600BD1C8
:10146000D8F80810B1F5004F02D0B1F5806F03D164
:10147000016821F040010160D8F82810B1F5005F43
:1014800007D1016821F400510160016841F4005165
:101490000160012088F85100002088F850000320E6
:1014A000BDE8F0810020BDE8F08100007047000039
:1014B000B0B501380024B4EB106F1CBF0120B0BDE3
:1014C0004EF21005CEF2000568604FF0FF300F219C
:1014D00000F022FA0720AC6028602046B0BD000072
:1014E00080B5FFF701F880BD70B592B006AC20461C
:1014F0003021FEF79DFE002543F640000595CDE91D
:101500000355CDE901550095C4F202000168022699
:1015100041F080510160006800F080500090009818
:1015200047F200000095C4F20000016841F48041D8
:1015300001600068A82100F480400090009801201C
:1015400006904FF4803007904FF480000D900420F7
:101550000C960E90CDE90F1611902046FFF756F924
:101560000F20CDE901064FF4A05004904FF48050B5
:10157000059001A805210395FFF738F812B070BD5A
:101580004EF68850CEF20000016841F4700101600F
:101590004FF0006140F8801C70470000B0B5054670
:1015A000006805F108030ECB0469194324F4405484
:1015B000224302616A69EB691143C26849F20C6413
:1015C0001943A2431143C1604169AA6921F44071E2
:1015D0001143416141F20041B3F5004F40F4806096
:1015E000C4F2010124D1884246D1FFF7C7F86B68E5
:1015F0001921A0FB01015A00DB0FFEF7E1FD48F2C3
:101600001F51C5F2EB11A0FB01235A096FF06303D0
:1016100002FB0300322303EBC000A0FB01014FF4E7
:10162000F87000EA111000EB0210C1F3421167E0FC
:10163000884244D1FFF7A2F86B681921A0FB010191
:101640009A009B0FFEF7BCFD48F21F51C5F2EB114B
:10165000A0FB01235A096FF0630302FB030032234E
:1016600003EB0010A0FB0101F02000EA511000EB99
:101670000210C1F3431143E0FFF76EF86B681921C4
:10168000A0FB01015A00DB0FFEF79AFD48F21F5143
:10169000C5F2EB11A0FB01235A096FF0630302FBB3
:1016A0000300322303EBC000A0FB01014FF4F870EC
:1016B00000EA111000EB0210C1F3421120E0FFF725
:1016C0004BF86B681921A0FB01019A009B0FFEF7F4
:1016D00077FD48F21F51C5F2EB11A0FB01235A0917
:1016E0006FF0630302FB0300322303EB0010A0FB47
:1016F0000101F02000EA511000EB0210C1F3431188
:101700002A6808439060B0BD40F20400C2F20000B5
:101710000121017000787047042906D80020DFE815
:1017200001F00306080B0300704704207047C8202F
:1017300004E04FF4805001E04FF48030106000204E
:101740007047000070B573B11C4615460E4600BFC9
:10175000304629464FF4805200F050F80135013CE4
:1017600006F58056F4D1002070BD000040F2040060
:10177000C2F20000012101700078704770B56BB1B2
:101780001C4615460E4600BF30462946012202F08F
:10179000B3FD0135013C06F58056F5D1002070BD42
:1017A000FEE7000070B582B0054602208DF8030008
:1017B000080214460191019000F088F80026C4F256
:1017C000020630464FF400410022FEF781FE0DF183
:1017D00003000121FFF714FE01A80321FFF710FE0B
:1017E00028462146FFF70CFE30464FF40041012207
:1017F000FEF76EFE00F062F802B070BD70B582B008
:101800000646032000248DF8030008021546C4F2A2
:1018100002040191019000F051F820464FF400417C
:101820000022FEF755FE0DF103000121FFF7E8FD50
:1018300001A80321FFF7E4FD20B930462946FFF750
:10184000D3FD50B14FF0FF3520464FF40041012247
:10185000FEF73EFE284602B070BD0025F4E700000A
:1018600010B582B000240020C4F202048DF80700F5
:101870000520009020464FF400410022FEF728FE8C
:1018800068460421FFF7BCFD28B90DF107000121CE
:10189000FFF7AAFD40B120464FF400410122FEF7B8
:1018A00017FE002002B010BD20464FF40041012277
:1018B000FEF70EFE9DF8070002B010BD80B500BF18
:1018C000FFF7CEFFC007FBD180BD000010B582B08E
:1018D00000240620C4F202048DF8070020464FF4CD
:1018E00000410022FEF7F4FD0DF107000121FFF792
:1018F00087FD20464FF400410122FEF7E9FDFFF786
:10190000DDFF02B010BD00004EF60C50CEF200001C
:101910000068C0F3022070474EF6145300F00F0227
:10192000CEF2000309011A4400F16043B0F1FF3F19
:10193000C8BF03F564421170704700004EF60C51A9
:10194000CEF200010A684FF6FF031A4060F30A2244
:1019500042F0806040F0FD7008607047B0B504460A
:101960000020E0704FF0FF302063204602F064FA60
:1019700000281CBF0420B0BD04F2322002F0F6F9AA
:101980004AF6552188421CBF0320B0BD94F83400AC
:10199000E92805D0EB2819D194F83600902815D104
:1019A00044F2461504F16A00C0F2540502F0DCF975
:1019B00020F07F40A84207D004F1860002F0D4F95D
:1019C00005F14C51884201D10020B0BD0220B0BDCC
:1019D000421E00BF12F8010F002818BF8842F9D13B
:1019E00070470000B0B540F22C0CC2F2000C0CF1B4
:1019F00004034FF0000E002207E000BF4FF0010E7D
:101A00000132022A03F110031AD053F8044C002CBF
:101A1000F4D00568AC42F3D11C688568AC42EFD1C4
:101A20005C684569AC42EBD1022A0CD11222BEF1AE
:101A3000000F18BF0022881E18BF1046C0B2B0BDEC
:101A40000222022AF2D011B11020C0B2B0BD0CEBBC
:101A500002108089A0F58070B0FA80F04009000182
:101A6000C0B2B0BD40F22C024FF0000CC2F2000236
:101A7000002300BFD158814208BF42F803C0103391
:101A8000202B08BF7047F5E7C36A5A68002A04BFD5
:101A9000002070470068090B4089B1FBF0F003F1AA
:101AA0000801904209D300BF801A4A680831002A11
:101AB00004BF002070479042F6D20968084470477E
:101AC00082690239023A914224BF0020704742895C
:101AD000C06A01FB020070472DE9F04F81B08046DB
:101AE00001F11A00894602F041F918B1002001B055
:101AF000BDE8F08F99F800000D2100F03F00484349
:101B000044F22C5AA0F10D0400250127C0F6000A6A
:101B10004FF6FF7B05E000BF5E45E7D101350D2D97
:101B200017D01AF80500484402F020F9002F0646A5
:101B3000F2D0FE2CDAD8304601F044FD38F814100B
:101B40000746084601F03EFD8742CFD101343746B3
:101B5000E4E7002F1CBF99F8000010F0400003D10B
:101B6000012001B0BDE8F08F38F814000028BDD185
:101B7000F6E700002DE9F04104688846074681B188
:101B80003846414602F002F802283CBF0120BDE879
:101B9000F081411C0CD0A169454688420DD2BDE8B8
:101BA000F081256945B1A069854228BF012504E07F
:101BB0004FF0FF30BDE8F08101252E46A0690136C7
:101BC000864228BF022601D3022D0CD33846314667
:101BD00001F0DCFF411CE2D040B1012808BFBDE8A4
:101BE000F081AE42EAD10020BDE8F08120463146C6
:101BF0004FF0FF3202F040F9B8F1000F014606D075
:101C000029B920464146324602F036F9014631B143
:101C10000120012908BF4FF0FF30BDE8F081D4E971
:101C200005012661023988429CBF01386061207934
:101C300040F0010020713046BDE8F08170B5ADF58F
:101C4000815D84B049F6CE11C0F6010168461222CA
:101C500001F02CF858B1044612A002F049FC49F6F4
:101C6000BE10C0F60100214602F078FB02E011A090
:101C700002F03EFC6C4612A1204601F051F92046CC
:101C800000F034FC50B1044611A002F031FC49F6DA
:101C9000BE10C0F60100214602F060FB0DF5815D2B
:101CA00004B070BD6372656174206661696C6564BF
:101CB000000000006372656174206F6B000000001B
:101CC00068656C6C6F206661746673210A000000A1
:101CD000636C6F73652066696C65206572726F72E4
:101CE000000000002DE9F04F85B00E688A460146DD
:101CF000049000683378C468202B4FF0000238BF8E
:101D00000122202B4FF000004FF0010124D231447A
:101D100012F0010618BF0426CAF80010A8B1B0FAE4
:101D200080F14A09474204EB400300BF33F8020C3C
:101D30002E2818BF202857D1791C4FF0000040F101
:101D40000002023BB9420F46F0D2002124F81010E5
:101D5000062005B0BDE8F08F0FF230296FF03F0B81
:101D600000254FF000080DE024F8157016F8083033
:101D7000681C08F10101202B4FF00002054638BF16
:101D80000122C4D3D8B25C2818BF2F2825D0FF2D3C
:101D9000DED003F17F02D2B27D2A01D988460CE061
:101DA000715608F10208CAB2B1F1FF3F42EA0020C1
:101DB00003DB5BFA81F13E29CAD8012101F0C6FBA1
:101DC0000028C5D007467F28CED848463946FFF7B9
:101DD000FFFD0028C8D0BBE70131705C5C2818BF4C
:101DE0002F28F9D0284692E70020D1071880AFD1DC
:101DF0000498202100F1240B58460B227F4201F069
:101E0000F1FF002534F815002E2818BF202801D135
:101E10000135F7E7A01E002D18BF46F0030600BFEE
:101E20003FB130F81720791E2E2A0F46F8D1481CF2
:101E300000E000200290A0F1010A08224FF0000EFD
:101E40000020531E814603E082450CD046F0030675
:101E500034F815702846202F05F10105F6D02E2FF5
:101E6000F2D0002F69D0914556D2824554D0802FB0
:101E700012D33846CDF80CE098464F46914601F013
:101E8000A1FB002101F062FBDDF80CE04A46B946F7
:101E90004346074646F00206B7F5807F05D39945CD
:101EA0001AD346F003069146D2E787B13AA03946E5
:101EB000CDF80CE09846CDF804909146FFF788FDE8
:101EC0004A46DDF80490DDF80CE0434698B146F050
:101ED00003065F27049908E004994FEA172C01EBE9
:101EE000090009F1010980F824C0494409F1010001
:101EF00081F82470A6E7A7F1410080B2192802D822
:101F00004EF0020EE6E7A7F1610080B219289CBFEF
:101F10004EF0010E203FDDE70B2A46F003010BD007
:101F2000824518BF0E4602998D4206D84FEA8E0EA2
:101F30000B2208200D4684E70E469BF80000049B08
:101F4000E52804BF05208BF80000082A08BF4FEAE7
:101F50008E0E0EF003010EF00C00032946F0020273
:101F600008BF16460C2808BF1646B20707D4012939
:101F700008BF46F01006042808BF46F0080683F89C
:101F80002F60002005B0BDE8F08F00BF222A3A3C48
:101F90003E3F7C7F000000002B2C3B3D5B5D000042
:101FA000411E012984BF0220704740F22C0CC2F26E
:101FB000000C0CEB01108389B3F5807218BF1A4630
:101FC000002A18BF013A828110044FF0000004BFBC
:101FD00009014CF801007047F0B581B005680E4664
:101FE0000021044600F0CEF920B1042808BF0720E4
:101FF00001B0F0BD002708E00137B742F5D0204618
:10200000012100F07FF80028EFD1E169284601F0B6
:1020100013FF0028E9D1216A0978E529ECD00029CD
:10202000EAD00027EBE700002DE9F04F81B0D0F8AF
:1020300000B00021044600F0A5F9074618B1384663
:1020400001B0BDE8F08F4FF0FF3904F12408FF25FF
:102050004FF0FF0AC4F83090E169584601F0ECFEF9
:1020600007460028EBD1266A3078002846D0F27A5D
:10207000E52802F03F01A17103D012070CD50F290A
:102080000AD0C4F83090FF252046002100F03AF82D
:102090000028E1D034E000BF0F291DD194F82F10A3
:1020A0004906F1D4410606D596F80DA0616900F005
:1020B000BF0005462163E9B28842E4D1707B8245C6
:1020C000E1D1DBF80C003146FFF706FD013D0028A9
:1020D00008BF4FF0FF35D7E7280604D1304602F09D
:1020E00081F88245ABD094F82F00C007C9D13046A3
:1020F000414601F055FE0028C3D1A0E704279EE722
:1021000007469CE72DE9F0470446C0690426B8B1AC
:102110008A4661694FF6FF72C0F20F0201F1200595
:1021200002F580118D420BD82F46D4F800906FF342
:102130001F3747B109EB0700343000266561206284
:102140003046BDE8F087A1690130E061E1B1B9F83E
:102150000A00104410EA153FECD1204601F016FDAC
:1021600002283CBF0220BDE8F0878046013033D012
:10217000D9F81800804511D248464146C4F8188065
:10218000FFF79EFCE061D5E7B9F80800B0EB551FFA
:10219000D0D80020E0610420BDE8F087BAF1000F3C
:1021A000F7D0A1692046FFF7E5FC804601300328FF
:1021B0000ED24FF6F871C0F2FF0101EAC00040F202
:1021C0000171C0F2020121FA00F0C0B2BDE8F0874F
:1021D000484602F063F810B10120BDE8F08709F12C
:1021E000340000214FF480524FF0000A01F0FAFD54
:1021F00048464146FFF764FCB9F80A10C9F83000B8
:10220000A1B14FF0000A0126484689F8036002F0A8
:1022100045F8002894D1D9F83000B9F80A100AF12D
:10222000010A01308A45C9F83000EDD3A0EB0A005D
:10223000C9F83000A0E700002DE9F04F83B08346D5
:1022400090F82F0010F0A00F04D00627384603B0F6
:10225000BDE8F08FDBF800A00B24DAF80C000238A0
:1022600030F8021F01340029FAD10BF12409684625
:1022700049460C2201F0A8FD9DF80B805FEAC8706A
:1022800034D15FEA88704FF0010507D54EF64F4014
:10229000C4F6C460A4FB000105EB9105584629462D
:1022A000FFF79AFE074600283FD0002FCED1DBF87B
:1022B0001C10504601F0C0FD07460028C6D1DBF8CF
:1022C00020000021202201F08DFDDBF8200049468E
:1022D0000B2201F079FD9BF82F00DBF8201000F0B5
:1022E0001800087301208AF80300AFE74020012698
:1022F0006D468BF82F0000BFDAF80C2048462946BF
:10230000334601F099FB5846FFF78EFE074618B991
:102310000136642EF0D16426642E01D1072795E79B
:10232000042F93D18BF82F80ABE76C1EBDD0DBF868
:102330001400A0EB4411584600F024F8074600288A
:10234000B3D1484601F04EFF80460125DBF81C1052
:10235000504601F071FD98B9DAF80C00DBF8201056
:10236000E2B2434601F010FE584600218AF80350BD
:10237000FFF7C8FE0746002897D1013CE6D194E755
:10238000074692E72DE9F0410C461F21CFF6E07198
:102390000C4202D00220BDE8F0818768D0F80080AE
:1023A0000546446157B197B1B8F80A00B4EB003F55
:1023B00025D240463946FFF783FB10E098F800002D
:1023C00003282CBFD8F828700027002FECD1B8F8CC
:1023D0000800B0EB541FDDD9D8F8280000270028EA
:1023E000AF61E861D6D000EB14306FF31F3408EB17
:1023F00004013431C5E907010020BDE8F08106037E
:102400002846394601F0C2FB0746013009D0022FA9
:10241000C0D3D8F818008742BCD2A41BB442EFD274
:10242000C7E70120BDE8F08180B540F25401C2F257
:1024300000010A5C002A1CBF002080BD01220A5452
:1024400001EB8002526808441168007A884780BD19
:1024500080B540F2540CC2F2000C0CEB80035B68B8
:1024600060441B69007A984780BD000080B540F247
:10247000540CC2F2000C0CEB800EDEF804E0604459
:10248000DEF808E0007AF04780BD000080B540F239
:102490005401C2F2000101EB800252680844526804
:1024A000007A904780BD000080B540F2540CC2F223
:1024B000000C0CEB800EDEF804E06044DEF80CE06B
:1024C000007AF04780BD000040F22C010020C2F2EB
:1024D000000100BF0A682AB10130022801F1100191
:1024E000F8D10220023818BF0120704710B582B021
:1024F000044600F007FF08B102B010BD01A9204654
:1025000001F00AFF0028F7D12069FFF749FD0028F4
:1025100004BF0021216002B010BD00002DE9F04F82
:1025200089B014460F46089008A807A9002201F0B8
:10253000A3F80546002864D107982060D0E9051665
:10254000B21E91421BD901780197012919D1079E2A
:10255000022400270DF10808029004E00137B06959
:102560000134844245D24046214601F00FFB002849
:10257000F4D0411C3CD00128F1D1022539E039606A
:102580003FE0DDF81CA0D0F824900AF1340B0027BE
:102590004FF0000800240FE0204601F0E5FB20F09A
:1025A0007040B0FA80F040096FF003010422144437
:1025B0008844013E07441CD0B8F1000F0AD15046B0
:1025C000494601F039FC054698B909F101094FF473
:1025D00080585C469AF800000228DDD1204601F0C0
:1025E000C5FBB0FA80F040096FF001010222DEE77E
:1025F0000125019907980F600179476141F00101B8
:102600000171E8B209B0BDE8F08F00002DE9F04F8C
:1026100091B0109010A81D4614460E4601F018FB0C
:10262000002820D440F22801C2F2000151F8201005
:102630005FFA80FA504600291CBF00220A70FFF79B
:10264000F3FEC10711D1400711D40FAA5046032150
:10265000FFF7FEFE0F9A511E0A4208BF00280BD05A
:1026600001200F900BE00B2702E0032700E00A2770
:10267000384611B0BDE8F08FB1F5004FF0D2601EC2
:1026800004424FF01307F3D1B4F1807FF0D840F645
:10269000FF718842ECD3DDF8689029EA010BBBF1A9
:1026A000000F12D00EAA504601210127FFF7D0FEDD
:1026B0000028DDD10E9816F008074FF03F0318BF31
:1026C0000023984203D20E27D2E70E27D0E7A0EBD3
:1026D000030CBCF1800FCDF838C001D20E27C7E73C
:1026E0004FEA1438B8F1800F01D91327C0E716F06C
:1026F0000201079108D006F0070102294FF00301FB
:1027000018BF16F0010204D0F10701D11327AFE77B
:1027100002214FEA1932029703924FEA1C320F9FAF
:1027200005924FEA5C4204927A1E0B927A420A9218
:10273000CDF820B00C934446CDF83480CEB2032EB1
:1027400025D1049F49F6FC10C0F6010054B90124BC
:10275000002630F81620974204D30136062E4FEAA1
:102760004404F6D1BCFBF4F64FF6F6724FF6FF7751
:10277000B21AC0F6FE77BA4200F2BA8041F20702FE
:1027800002EB860E4FF000084FF0200927E0059F6E
:1027900049F6EE10C0F6010054B90124002630F8C5
:1027A0001620974204D30136062E4FEA4404F6D190
:1027B000BCFBF4F640F6F672964203D3042202EB19
:1027C000460606E006EB46010131032202EB510604
:1027D000012106F6FF7E4FF004084FF0010908467C
:1027E00009EB0301099101EB1E3101EB08020B9982
:1027F0000A9E11443140891A5FFA80FBC3EB04132F
:10280000BBF1030F01EB1E361A4408BF894408BF11
:102810004FEA1E3694455AD3ACEB0802A2EB0902EC
:10282000921BB2FBF4F2CDF81880BBF1030FD8462F
:1028300003D14FF6F5739A4213D90C9BDDF820B003
:10284000B8F1020F45D14FF6F677BA4218D32746B2
:102850000D9C04B3079900294FF003017FF46EAF7C
:1028600029E00D990C9B002940F0D98100214FEA05
:1028700054080E27B1EB540F01467FF45CAFF7E626
:1028800040F6F577BA4224D80D99002940F0C98165
:102890004FEA440814E03A467E000321A046412E48
:1028A0003CBF01464FEA4708079A002A7FF443AF2E
:1028B000412EFFF440AF002C40F0AF814FEA4708B3
:1028C0000E27B8F1810F0146FFF435AFD0E60E2791
:1028D000CEE6B8F1030F099808BF0844B8F1010F1C
:1028E000099007D140F6F570824203D90E27BFE662
:1028F0000E27BDE6B8F103000B9218BF01200D9022
:10290000284600214FF4805227462C4601F06AFAEF
:10291000C5A128460B2201F057FA05F10B004FF430
:10292000805101F05DFC05F10E001FFA89F10A9754
:102930006F7301F055FC0D990120287405F1110009
:10294000490201F04DFC0E990020B0EB114F05D16A
:1029500004F1130089B201F043FC03E004F120000C
:1029600001F03CFCF820607504F118003F2101F0F3
:1029700037FC04F11A00FF2101F032FC0C9904F13C
:102980001C0001F02BFCB8F1030F20D104F1430728
:1029900001F05CF90146384601F020FC04F1240006
:1029A000314601F01BFC04F12C00022101F016FC61
:1029B00004F13000012101F013FC04F13200062182
:1029C00001F00EFC9BA147204222402313E004F1BA
:1029D000270701F03BF90146384601F0FFFB04F1FF
:1029E0001600B1B201F0FCFB49F6DA11C0F60101A4
:1029F0002B20262224238027E7542923A354204474
:102A0000132201F0E1F904F5FF7948464AF6552111
:102A100001F0E6FB0C9A5046214601230127FFF7FF
:102A200043FD00287FF424AEB8F1030FCDF80480F5
:102A3000CDF834904ED10C9F5046BA1D2946012343
:102A40002C46FFF731FD284600214FF4805201F05B
:102A5000C9F945F25221C4F26111284601F0BEFBCA
:102A600047F2722105F5F270C6F2411101F0B6FB92
:102A70000B9905F5F470013901F0B0FB05F5F6701E
:102A8000022101F0ABFB48464AF6552101F0A8FBB4
:102A9000FA1D504629460123FFF706FD7A1C5046D1
:102AA00029460123FFF700FD284600215A4601F080
:102AB00099F928466FF0070105F1080B2F1D01F069
:102AC0008DFB38464FF0FF3101F088FB58466FF020
:102AD00070410FE0284600215A462C4601F082F949
:102AE0006FF007012846B8F1010F04BF4FF6F871E7
:102AF000C0F2FF0101F072FBDDF80C90DDF82480DC
:102B0000AB4637464E4588BF4F465046594642462B
:102B10003B46FFF7C9FC00287BD1584600214FF403
:102B2000805201F05FF9F61BB844EAD10198069A89
:102B300003280A9808BF024616464A4588BF4E46F3
:102B400050465946144642463346FFF7ADFC00282E
:102B500061D1A41BB0442246EED102980199DDE96F
:102B60000C6800284BD1BDF83A0002294FF001044F
:102B700008BF0424002818BF0624032928464FF064
:102B800000014FF480524FF0010708BF0C2401F000
:102B900029F940464AF6552101F022FB0E9845F2EC
:102BA0005B613044C0F21551A0FB0112801A40F263
:102BB000001102EB5000FE22C0F2010185F8C32192
:102BC0003F22C5F8BE11410B42EAD03085F8C4015E
:102BD00085F8C51105F5E370314685F8C24101F06D
:102BE000FDFA0E9905F5E57001F0F8FA5046294610
:102BF00000220123FFF758FC00287FF439AD50462E
:102C000000210022FFF724FC0746002818BF0127F7
:102C10002EE501272CE501272AE50E2728E50E27BA
:102C200026E50E2724E500BFEBFE904D53444F539D
:102C3000352E30004E4F204E414D4520202020465D
:102C400041543332202020002DE9F04184B0054664
:102C5000039001A81446CDE9011100F0F9FF002806
:102C600020D440F22808C2F2000858F82070064626
:102C700027B13846FEF7F6FE00203870002D1CBF45
:102C8000002028700399012C4FF0000048F826100E
:102C900005D121B102A803A9002200F0EDFC04B087
:102CA000BDE8F0810B2004B0BDE8F0812DE9F04FC4
:102CB000ADF50F7D8E9138B302F03F061746814681
:102CC0008EA880A9324600F0D7FC0546002840F0C7
:102CD0000881DDF800B268468E99CBF80C0081A817
:102CE000CDF804B200F01EFE054678B116F01C0FB8
:102CF0001BD045B3042D37D1FFF7E6FB98B381A86D
:102D0000FFF79AFA05462FE00925EFE09DF9330217
:102D100000281FD417F03E0181A818BF0121FEF73B
:102D200061FE054616F01C0FE3D1002D5FD19DF822
:102D30000A02C1065AD4C007284618BF0720B107A7
:102D400048BF054653E09DF80A0210F0110F06D067
:102D500007250BE0062516F01C0FCAD1E5E7700722
:102D600048BF082502E0122546F00806002D3ED196
:102D700016F008003BD000F069FF899F804607F1FC
:102D80000E00414601F02AFA07F11600414601F013
:102D900025FADDF800A22020F8725046394600F0EE
:102DA000CFFF804650463946002201F003FA07F172
:102DB0001C00002101F012FA0120B8F1000F8AF87E
:102DC000030014D0DAF8304081A84146002201F017
:102DD000ABF908B105460AE05046214601F02CF84F
:102DE0000546A8F10100CAF8100000E0042515B15D
:102DF000002D76D117E0809906F0080046EAC0065B
:102E0000086B8999012EC9E909014FF0000181A8D9
:102E100088BF012100F042FFC9F81000002808BF58
:102E20000225002D5DD1DDF800A2899F504639466C
:102E300000F086FFC9F8080007F11C0000F094FFBD
:102E4000C9F80C000020C9F82C00C9F800B0BBF884
:102E5000061009F13008A9F8041089F81500C9F81E
:102E60002000C9F81800404600214FF4805289F82C
:102E7000146000F0B7FFB00633D5D9F80C6086B304
:102E8000D9F80810B5FA85F04FEA5010C9F8186063
:102E900005BBBAF80A201403A6421BD90020A0EBF8
:102EA000023B00BF484600F071FE0228014638BFD1
:102EB0000225013008BF0125E8B2B0FA80F2371BC5
:102EC00000284FEA521006D10BEB0602A2423E4602
:102ED000E8D800E037463A05C9F81C1018BF0028AA
:102EE00009D128061CBF0020C9F80000E8B20DF582
:102EF0000F7DBDE8F08F5046FEF7E2FD70B100EBAC
:102F00001732C9F820209AF8010041460123012414
:102F1000FFF7ACFA002818BF2546E2E70225E0E7F4
:102F200082B02DE9F04F9DB00DF124080D46014609
:102F30004046CDE9262301F0ABF826A801AC1C9051
:102F4000601E00902E4616F8011B252908D0002986
:102F500000F00F81404601F05FF83546F2E700BF10
:102F60006978302904D02D2907D14FF0020E01E0F5
:102F70004FF0010EA978033502E002354FF0000E44
:102F8000A1F13000C0B24FF0000B09280ED800BFED
:102F90000BEB8B00400050FA81F015F8011BA0F1FB
:102FA000300BA1F13002D2B20A2AF1D341F0200055
:102FB0006C2804BF15F8011B0EF1040E002900F067
:102FC000D880A1F16100C0B21A280B466FF0410011
:102FD00038BF203B50FA83F016281DD80222DFE8C4
:102FE00000F05F1F240C0C0C0C0C0C0C0C0C0C26B1
:102FF0000C0C0C280C240C0C5E00FFE7FFE7FFE72D
:10300000FFE7FFE7FFE7FFE7FFE7FFE7FFE7FFE790
:10301000FFE7FFE7FFE7FFE7404600F0FDFF91E72E
:103020001C98011D1C910178F6E70A2238E008225D
:1030300036E01C980022011D1C910668B05C114608
:10304000002802F10102F9D15FEA8E70A2F1010AB3
:103050000CD4DA45924609D20BF1010AABEB010719
:103060004046202100F0D8FF013FF9D1307848B127
:10307000013E00BFC1B2404600F0CEFFB07801363D
:103080000028F7D1DA45BFF45DAFABEB0A0600BF0D
:103090004046202100F0C0FF013EF9D152E7102246
:1030A0001C980026071D1C976FF04307006857FA0D
:1030B00083F3B3FA83F35F09002848BF012617EAB8
:1030C000060C4FF0000318BF404278294FF007016B
:1030D00008BF2721B0FBF2F603F1010A06FB120735
:1030E000092F88BF0F4430378242E75403D81F2B83
:1030F00053463046EED3BCF1000F18BF0EF1080E58
:103100005FEA0E7042BF2D2004F80A000AF1010A9E
:10311000009C5FEACE704FF0300608BF20261EF0FC
:103120000208D1460CD15046584500F1010907D29A
:1031300009A8314600F070FFB8F1000F4846F3D0FF
:103140000DF1240814F80A104046AAF1010A00F013
:1031500063FFBAF1000FF5D1D94501ACBFF4F2AE6F
:10316000ABEB09074046314600F056FF013FF9D16D
:10317000E8E609A800F074FF1DB0BDE8F04F02B00A
:10318000704700002DE9F04F83B0044600200F4641
:10319000186002A920469B46164601F0BDF808B902
:1031A000607D10B103B0BDE8F08F207DC00703D172
:1031B000072003B0BDE8F08FE068A169401AB04273
:1031C00038BF0646002E00F0928004F130000190D6
:1031D00028E099F80100019952460123FFF746F9CA
:1031E000002840F08A80C4F820A000BFA0696FF3D7
:1031F0001F30C0F580552044B54288BF354600F1E8
:10320000300138462A4600F0DFFDA0692F442844EB
:10321000A061DBF80000761B2844CBF800004FF0DB
:103220000000BFD0A1690805E0D1DDF80890B9F829
:103230000A00013800EA1138B8F1000F11D129B1A4
:10324000E06A28B12046FEF71FFC05E0A06803E015
:10325000E169204600F09AFC01284CD9411C4CD071
:10326000E061E1694846FEF72BFC002843D00021CD
:10327000B1EB163F00EB080A23D0350BB9F80A1062
:1032800008EB0500884299F8010088BFA1EB08050A
:10329000394652462B46FFF7E9F870BB94F9140003
:1032A000B0F1FF3F0BDC206AA0EB0A00A84206D277
:1032B000019907EB00304FF4805200F085FD2D039B
:1032C000A3E7226A52453FF48EAF94F91400B0F19F
:1032D000FF3F3FF77EAF99F8010001990123FFF707
:1032E000E3F850B9207D00F07F00207571E70020E1
:1032F00003B0BDE8F08F022000E00120607503B04C
:10330000BDE8F08FF0B581B06946044601F004F8DD
:10331000074600283FD1207D41063CD500060DD54B
:103320000098226A407804F1300101230127FFF759
:10333000BBF880BB207D00F07F00207500F086FC8C
:10334000009D616A0646284600F076FD074610BBE0
:10335000A76AF87A394640F02000F8722068A2681F
:1033600000F028FFE16807F11C0000F037FF07F1CB
:103370001600314600F032FF07F11200002100F084
:103380002FFF0120E870284600F03EFF217D074610
:1033900001F0BF002075384601B0F0BD2DE9F04FB7
:1033A00083B0044600200F46186002A920469B46C1
:1033B000164600F0B1FF10B103B0BDE8F08F607D9C
:1033C0000028F9D1207D800703D4072003B0BDE891
:1033D000F08FA069C043B04238BF0646002E00F00F
:1033E000A780DDF8088004F13000019024E0C4F8E3
:1033F00020A000BFA06939466FF31F30C0F580558B
:103400002044B54288BF354630302A4600F0DCFC07
:10341000207D40F080002075A069E1682844A0610B
:10342000884288BF0146DBF800002F442844761B01
:10343000E160CBF800007BD0A1690805DAD1B8F8CB
:103440000A00013800EA1139B9F1000F1AD129B187
:10345000E06A40B12046FEF717FB08E0A06830B9EB
:103460002046002101E0E1692046FEF783FB411C74
:103470005CD000285CD0012862D0A168E0610029FE
:1034800008BFA06094F91400B0F1FF3F0CDC98F87D
:103490000100226A01990123FFF706F8002845D1AF
:1034A000207D00F07F002075E1694046FEF708FBB3
:1034B000002845D00021B1EB163F00EB090A22D0CD
:1034C000350BB8F80A1009EB0500884298F801009E
:1034D00088BFA1EB0905394652462B46FEF7E4FFAB
:1034E00020BB206AA0EB0A00A8420AD207EB0031F9
:1034F00001984FF4805200F067FC207D00F07F00BF
:1035000020752D0388E7206A50453FF470AFE068CE
:10351000A1698142BFF46BAF98F80100019952464E
:103520000123FEF7A3FF00283FF461AF012008E06C
:10353000207D40F040002075002003B0BDE8F08FF2
:103540000220607503B0BDE8F08F0000B0B58028A0
:1035500038BFB0BD44F23A5C49F6B842C0F6000C40
:1035600000294AF64021C0F6010208BF94463CF803
:103570000140844203D1012542F6902E18E045F225
:103580002053002242F6902E6FF00F01844234BF88
:103590007246734601310D4618BF012508D09C1AAA
:1035A00004EBD47402EB640E3CF82E408442EDD15F
:1035B000002D04BF0020B0BD4FEA8E0002303CF861
:1035C0000000B0BD80B549F60A2249F6C621C0F612
:1035D0000102C0F60101B0F5805F38BF0A46B2F8BB
:1035E00000C0BCF1000F1AD01FFA8CF1814216D82E
:1035F000538802F1040E51FA83F282424FEA1322F9
:103600000FD8D9B20B46002A18BF002372463EF8E5
:1036100013C008BF02EB4102BCF1000FE4D180B23D
:1036200080BD082AFBD8DFE802F0050A1114171A3A
:103630001D202300401A3EF8100080B280BDA0EB90
:103640000C0101F00101401A80B280BD103880B237
:1036500080BD203880B280BD303880B280BD1A383D
:1036600080B280BD083080B280BD503880B280BD4D
:10367000A0F5E35080B280BD2DE9F04784B00F463D
:1036800000211546396000F0E3FA002818D40646F8
:1036900040F22800C2F2000050F82640D4B33C604B
:1036A000207805F0FE0568B16078FEF7EFFEC107EF
:1036B00008D140070A21002D18BF01EAE0757FE01C
:1036C0000B257DE000202070F0B26670FEF7ACFEA6
:1036D000C10721D1002D18BF10F004001ED12046D3
:1036E00000210025FEF73AF902282BD16E4600256D
:1036F000374608E000F5FD7000F036FB1035402D30
:1037000047F8040B0CD0601990F8F6110029F1D19C
:103710000020F3E70C2553E0032551E00A254FE094
:10372000002700BF56F8275035B120462946FEF73E
:1037300015F9022803D205E00320022802D301373D
:10374000042FEFD1042801D1012539E0012801D946
:103750000D2535E004F13F0000F008FBB0F5805F77
:1037600029D104F14A0000F001FB824620B904F19E
:10377000580000F0F9FA824694F84460C4F81CA09E
:10378000701E0128A67018D894F84170781E384031
:10379000B7FA87F118BF01204909084367810ED1A4
:1037A00004F1450000F0E2FA81464006A4F80890D2
:1037B0000AD00D2504E00D2502E00D2500E00D25C1
:1037C000284604B0BDE8F08704F1470000F0CEFAC7
:1037D000804620B904F1540000F0C6FA804604F196
:1037E000420000F0C3FA40B10AFB06F101EBD91226
:1037F0000244904503D20D25E2E70D25E0E7A8EB52
:103800000203BB4201D20D25DAE7B3FBF7F34FF613
:10381000F6774FF00308BB4240F6F67738BF4FF01B
:103820000208BB4238BF4FF001089E1C28442A44BE
:10383000B8F1030FA661C4E90850E26208D104F1AF
:103840005E0000F093FA50EA090011D00D25B7E7A9
:10385000B9F1000F64D00844B8F1020FA0620FBFA5
:10386000700006EB460006F0010101EB500005E098
:1038700004F1600000F078FAA062B00000F6FF707A
:10388000BAEB103F01D20D259AE74FF0FF30C4E9A3
:1038900004008020B8F1030F207132D104F16400DC
:1038A00000F064FA01282CD1691C204600F0C4FA0B
:1038B00038BB0020207104F2322000F057FA4AF69B
:1038C000552188421DD104F1340000F04DFA45F233
:1038D0005221C4F26111884213D104F5067000F040
:1038E00043FA47F27221C6F24111884209D104F528
:1038F000077000F039FA606104F5087000F034FADE
:10390000206140F24C0084F80080C2F2000001887F
:10391000013101802046E180FEF7A4F800254FE741
:103920000D254DE770B582B005680446019100BFD2
:1039300008785C2818BF2F2801D10131F8E7002052
:103940000191A0600878202808D2802084F82F00F8
:1039500020460021FEF716FD02B070BD01A92046E9
:10396000FEF7C0F908B102B070BD01AE2046FEF707
:103970005BFB94F82F10A8B94907F4D4A079C006CE
:1039800017D560696FF31F30284400F134012846D1
:1039900000F0D6F9A06020463146FEF7A3F90028D2
:1039A000E4D0E0E70428DED1490758BF052002B083
:1039B00070BD052002B070BD80B5ADF5816D0FA062
:1039C00000F096FD40F24E004FF0020CC2F20000F3
:1039D00002AB01214FF48052CDF800C0FEF716FE75
:1039E00030B1014609A000F0B9FC0DF5816D80BD34
:1039F0000BA000F07DFD0DF5816D80BD50524F4351
:103A0000455353494E472E2E2E0000006661696CC7
:103A1000656420776974683A2025640A0000000014
:103A20004F4B210041F20001C4F201010A68520625
:103A3000FCD5C2B24A607047F0B583B016460B227F
:103A40001D46074600F0C0F9052D16D93088A0B1F3
:103A500041F22101C0F20101102200BF00F0010378
:103A60002C0443EA45054FEA500048BF4D40013A57
:103A7000F4D136F8020F0028EED101A8C11D6FF075
:103A800006030322002600BF2C4662F31F14392CC4
:103A900088BF073401F80149B6EB151F4FEA151529
:103AA00003F10103F0D17E220A70C3F100014FF04F
:103AB00000022BB90EE000BF013201328A4209D266
:103AC000BE5C202E06D07F36F6B27D2EF5D89E182D
:103AD0000136F1D107299ABF435C01312023BB5441
:103AE0000132082AF6D303B0F0BD000070B5ADF581
:103AF000825D03A8029012A001A902AAFEF70EFDA2
:103B000068B104460FA000F0F3FC49F6BE10C0F601
:103B10000100214600F022FC0DF5825D70BD029887
:103B20006FF007028169408902EB8101019A4143EC
:103B30005043820008A000F011FC0DF5825D70BDBD
:103B40002F000000676574206469736B20696E66DE
:103B50006F206572726F72002564204B4220546F93
:103B600074616C2044726976652053706163652EC0
:103B70000A2564204B4220417661696C61626C6564
:103B80002053706163652E0A00000000F0B581B01B
:103B9000022930D305680C46A86988422BD92878B9
:103BA00003282BD002283CD0012824D1686A04EBDA
:103BB000540700EB1731284600F03EF9C0BB7E1CCD
:103BC0006FF31F37696AE81990F8347001EB16310A
:103BD000284600F031F958BB6FF31F36A81990F84A
:103BE0003400E20747EA002108466FF31F3018BF90
:103BF000080901B0F0BD012001B0F0BD686A00EB1A
:103C00009421284600F018F990B940F6FC7000EABB
:103C100084002844343000F0A7F820F0704001B050
:103C2000F0BD686A00EBD421284600F005F918B110
:103C30004FF0FF3001B0F0BD40F6FE7000EA4400E6
:103C40002844343000F092F801B0F0BD00207047F5
:103C50000268002A04BF4FF0FF307047002300BF06
:103C6000D15C0133202901D33A29F9D13A291CBF6B
:103C7000002070471178A1F1300CBCF1090F84BF0E
:103C80004FF0FF307047022B4FF0FF3101BFBCF106
:103C9000000FD1180160614608467047F0B540F248
:103CA0002C0CC2F2000CD0F800E00CF1040200234E
:103CB00005E000BF0133022B02F110020ED052F8D2
:103CC000044C7445F6D114688568AC42F2D154684E
:103CD0004569AC42EED1022B03D020E00223022B37
:103CE0001DD140F22C0EC2F2000E0023724600BF1E
:103CF00014682CB10133022B02F11002F8D1022317
:103D0000022B4FF0000218D00668876840690EEB5E
:103D100003141D014EF80560C4E90170A2810CEB8B
:103D20000310828931B1002A1CBF0020F0BD4FF47E
:103D3000807100E0511C5A1C81811046F0BD0000CA
:103D4000B0B5044601F11A000D4600F00FF82178D5
:103D50000446032905D105F1140000F007F844EAF0
:103D600000442046B0BD00000068704700887047DE
:103D7000FCF7C8FBFDF7B8FBFDF728FAFDF770FA72
:103D8000FDF790FAFDF710FA00F034F8FFF714FE93
:103D9000FDF754FFFFF7AAFE00F080F9FEE70000F0
:103DA00080B5A0F1010C01390A2200BF1CF801EF17
:103DB00011F8010F531E9342AEEB000028BF80BDE7
:103DC00000281A46F2D080BD002A08BF704701388B
:103DD000013900BF11F8013F013A00F8013FF9D164
:103DE0007047000080B51346CAB21946FCF719FAAD
:103DF00080BD000080B540F2600040F24E01C2F28A
:103E00000000C2F200010022FEF71EFF20B10146B1
:103E100003A000F0A3FA80BD04A000F069FB80BD00
:103E20004641494C45443A2025640A004D4F554EC1
:103E300054204F4B00000000F0B581B00446006BE9
:103E4000884201D1002513E020460E4600F026FAF4
:103E5000054668B9607804F1340132460123012730
:103E6000FEF704FB00281CBF4FF0FF363D462663DB
:103E7000284601B0F0BD00002DE9F04381B00229D1
:103E800027D3044680690F46884224D920781546F6
:103E9000032825D002283FD0012852D1606A07EBC1
:103EA000570900EB19312046FFF7C6FF064698B9BF
:103EB00009F101086FF31F3904EB090017F001073E
:103EC00000F134003FD0017801F00F0165F30B11D0
:103ED0003AE0022600E00226304601B0BDE8F08359
:103EE000606A00EB97212046FFF7A6FF06460028F0
:103EF000F2D140F6FC7000EA8700204400F134075C
:103F00003846FFF731FF014665F31B01384600F0E4
:103F100065F90120E070DFE7606A00EBD7212046F9
:103F2000FFF78AFF06460028D6D140F6FE7000EA69
:103F3000470020443430A9B200F052F90120E0706B
:103F4000CAE70226C8E7E9B20170616A0120E070A1
:103F500001EB18312046FFF76FFF06460028BBD162
:103F60006FF31F3804EB080000F1340017B1C5F3FC
:103F7000071105E00178C5F3032201F0F0011144B7
:103F800001700120E070A7E72DE9F04F81B0814674
:103F90000F208A464B73A1F80B0001F11A00002193
:103FA00016464FF6FF74002500F01AF90D207043F5
:103FB00044F22C5B0096A0F10D06C0F6000B4FF00A
:103FC000000800BF1FFA88F0A0421BF805001CBFC4
:103FD00039F8168001361FFA88F75044394600F048
:103FE000FFF8002F05F1010508BFA0460D2DE9D10E
:103FF0001FFA88F00099A04206D039F81600002870
:1040000008BF41F0400101E041F040018AF8001092
:1040100001B0BDE8F08F000070B582B00E460A29ED
:10402000044603D120460D21FFF7F6FF6068002803
:1040300014D4451C21183C280E730BDB214651F883
:104040000C0B01AB2A46FFF7A9F90198451B18BFD5
:104050004FF0FF35A06865600130A06002B070BD10
:1040600010B582B04268002A0ED40146044651F8C9
:104070000C0B01ABFFF792F930B9606801998842E7
:1040800002D1A06802B010BD4FF0FF3002B010BDE9
:104090000022C0E90012826070470000B0B5ADF5A3
:1040A000845D86B068466421FCF7C2F849F6CE11FB
:1040B000C0F601011AA80122FEF7F8FD20B1014661
:1040C00010A000F04BF919E01AAC6D4619AB204670
:1040D00029461422FFF756F8284600F009FA204630
:1040E000FEF704FA50B104460AA000F001FA49F6BE
:1040F000BE10C0F60100214600F030F90DF5845DD8
:1041000006B0B0BD6F70656E206572726F723A2036
:1041100025640A00636C6F73652066696C652065B1
:1041200072726F7200000000F0B581B002292DD3C9
:1041300005680446A8690E46884227D95AB1284620
:1041400011464FF0FF32FFF797FE20B101B0F0BDEE
:1041500087423E462BD220463146FFF717FD0746E1
:104160000130032815D3284631460022FFF784FE8C
:104170000028EBD1D5E90510821E9142E8D22A79B8
:104180000131696142F001012971E1E7022001B0CA
:10419000F0BD4FF6F871C0F2FF0101EAC000012145
:1041A000C0F2020121FA00F0C0B201B0F0BD00205F
:1041B00001B0F0BD70B50D46064601F11A0091B28E
:1041C000144600F00DF83078032818BF70BD05F1D3
:1041D0001400210C00F004F870BD0000016070476D
:1041E0000180704700224FF0FF3100BFD2B200EBD8
:1041F000010C530843EAC2129CF8013001310A292C
:104200001A44F3D1D0B27047F0B581B0054600F042
:1042100045F8044600283ED12878032833D1287970
:10422000012830D105F13406304600214FF4805288
:104230000027FFF7D7FD05F232204AF65521FFF798
:10424000CFFF45F25221C4F261113046FFF7C6FF9D
:1042500047F2722105F50670C6F24111FFF7BEFF65
:10426000696905F50770FFF7B9FF296905F5087059
:10427000FFF7B4FF286A3146421C687801232A639D
:10428000FEF712F92F71687800210022FEF7E0F89E
:10429000002818BF0124204601B0F0BDF0B581B060
:1042A0000446C07808B3256B607804F134063146C3
:1042B0002A4601230127FEF7F7F8B8B9606AE169D9
:1042C000281A00278842E77010D2A778022F10D34F
:1042D000E16960780D4431462A460123FEF7E4F88F
:1042E000013F012FF4D8002700E00027384601B035
:1042F000F0BD0027FAE7000070B50C460546002621
:10430000284621464FF48072FDF74CFA0F2E06F135
:104310000106F5D370BD0000B0B505460C4680B16E
:10432000286880B1017881B1A988C28891420ED1F4
:104330004078FEF7ABF800F00100404200F00900C1
:1043400006E0092004E0092002E0092000E009203D
:1043500000280CBF296800212160B0BD0FB4054BB7
:1043600010B503A9044A029800F018F810BC5DF8D3
:1043700014FB0000253A00080000002002E008C8F5
:10438000121F08C1002AFAD170477047002001E0CF
:1043900001C1121F002AFBD1704700002DE9FF4F19
:1043A00089B09B460446002506E025280BD05A46D6
:1043B0000B999047641C6D1C20780028F5D10DB036
:1043C0002846BDE8F08F0027B8460122474900E0A3
:1043D000074314F8013F203B02FA03F00842F7D1EB
:1043E00020782E2819D114F8010F47F004072A2845
:1043F0000ED06FF02F022078A0F1300109290CD8DF
:1044000008EB880102EB410100EB0108641CF2E7B4
:104410000A98641C50F8048B0A9020780028CED0AB
:10442000642808D0692806D075281ED05A460B99F2
:1044300090476D1C58E00A994FF00A0901C90A918A
:10444000002802DA40422D2102E0390504D52B2153
:104450008DF82010012103E0F90704D02021F7E7AF
:104460008A4608AE0DE00021FAE70A994FF00A09E2
:1044700001C90A91F7E74946FBF7E5FE303106F836
:10448000011D0028F7D1ADEB060000F120097807E7
:1044900001D44FF00108C84502DDA8EB090000E097
:1044A00000208046002706E008A85A46C05D0B9908
:1044B00090476D1C7F1C5745F6DB04E030205A46C0
:1044C0000B9990476D1CB8F10001A8F10108F5DCCB
:1044D00005E016F8010B5A460B9990476D1CB9F18F
:1044E0000001A9F10109F4DC641C65E70928010059
:1044F00010B5044601E0FFF795FA14F8010B0449E2
:104500000028F8D1BDE810400A20FFF78BBA000060
:104510000000002000000000000000000102030471
:104520000607080900000000010203040103050753
:10453000090E10121416181C1E008000AC204081B9
:10454000024E4181044E4281054E4381064E448114
:104550000F4E4581124E4681174E47811F4E4881AE
:10456000204E4981214E4A81234E4B81264E4C815B
:10457000294E4D812E4E4E812F4E4F81314E50810E
:10458000334E5181354E5281374E53813C4E5481CA
:10459000404E5581414E5681424E5781444E58817E
:1045A000464E59814A4E5A81514E5B81554E5C812F
:1045B000574E5D815A4E5E815B4E5F81624E6081D7
:1045C000634E6181644E6281654E6381674E648192
:1045D000684E65816A4E66816B4E67816C4E68815C
:1045E0006D4E69816E4E6A816F4E6B81724E6C8129
:1045F000744E6D81754E6E81764E6F81774E7081EF
:10460000784E7181794E72817A4E73817B4E7481BE
:104610007C4E75817D4E76817F4E7781804E78818C
:10462000814E7981824E7A81834E7B81844E7C815A
:10463000854E7D81874E7E818A4E8081904E81811C
:10464000964E8281974E8381994E84819C4E8581BE
:104650009D4E86819E4E8781A34E8881AA4E898178
:10466000AF4E8A81B04E8B81B14E8C81B44E8D811C
:10467000B64E8E81B74E8F81B84E9081B94E9181E2
:10468000BC4E9281BD4E9381BE4E9481C84E9581A1
:10469000CC4E9681CF4E9781D04E9881D24E998143
:1046A000DA4E9A81DB4E9B81DC4E9C81E04E9D81EF
:1046B000E24E9E81E64E9F81E74EA081E94EA181A8
:1046C000ED4EA281EE4EA381EF4EA481F14EA58165
:1046D000F44EA681F84EA781F94EA881FA4EA98121
:1046E000FC4EAA81FE4EAB81004FAC81024FAD81E2
:1046F000034FAE81044FAF81054FB081064FB181AA
:10470000074FB281084FB3810B4FB4810C4FB58175
:10471000124FB681134FB781144FB881154FB9812D
:10472000164FBA811C4FBB811D4FBC81214FBD81EB
:10473000234FBE81284FBF81294FC0812C4FC1819B
:104740002D4FC2812E4FC381314FC481334FC5815C
:10475000354FC681374FC781394FC8813B4FC9811B
:104760003E4FCA813F4FCB81404FCC81414FCD81DD
:10477000424FCE81444FCF81454FD081474FD181A9
:10478000484FD281494FD3814A4FD4814B4FD58175
:104790004C4FD681524FD781544FD881564FD98133
:1047A000614FDA81624FDB81664FDC81684FDD81CA
:1047B0006A4FDE816B4FDF816D4FE0816E4FE1818B
:1047C000714FE281724FE381754FE481774FE5814C
:1047D000784FE681794FE7817A4FE8817D4FE98113
:1047E000804FEA81814FEB81824FEC81854FED81D3
:1047F000864FEE81874FEF818A4FF0818C4FF18198
:104800008E4FF281904FF381924FF481934FF58157
:10481000954FF681964FF781984FF881994FF9811E
:104820009A4FFA819C4FFB819E4FFC819F4FFD81E7
:10483000A14FFE81A24F4082A44F4182AB4F4282E2
:10484000AD4F4382B04F4482B14F4582B24F468252
:10485000B34F4782B44F4882B64F4982B74F4A821E
:10486000B84F4B82B94F4C82BA4F4D82BB4F4E82EC
:10487000BC4F4F82BD4F5082BE4F5182C04F5282BB
:10488000C14F5382C24F5482C64F5582C74F568282
:10489000C84F5782C94F5882CB4F5982CC4F5A824A
:1048A000CD4F5B82D24F5C82D34F5D82D44F5E820C
:1048B000D54F5F82D64F6082D94F6182DB4F6282D3
:1048C000E04F6382E24F6482E44F6582E54F668287
:1048D000E74F6782EB4F6882EC4F6982F04F6A8244
:1048E000F24F6B82F44F6C82F54F6D82F64F6E8201
:1048F000F74F6F82F94F7082FB4F7182FC4F7282CB
:10490000FD4F7382FF4F7482005075820150768292
:1049100002507782035078820450798205507A825F
:1049200006507B8207507C8208507D8209507E822F
:104930000A5080820B5081820E50828210508382F6
:1049400011508482135085821550868216508782BA
:10495000175088821B5089821D508A821E508B827C
:1049600020508C8222508D8223508E8224508F8240
:10497000275090822B5091822F50928230509382F8
:1049800031509482325095823350968234509782BF
:10499000355098823650998237509A8238509B828F
:1049A00039509C823B509D823D509E823F509F8259
:1049B0004050A0824150A1824250A2824450A38222
:1049C0004550A4824650A5824950A6824A50A782EB
:1049D0004B50A8824D50A9825050AA825150AB82B0
:1049E0005250AC825350AD825450AE825650AF827A
:1049F0005750B0825850B1825950B2825B50B38246
:104A00005D50B4825E50B5825F50B6826050B7820E
:104A10006150B8826250B9826350BA826450BB82DE
:104A20006650BC826750BD826850BE826950BF82AA
:104A30006A50C0826B50C1826D50C2826E50C38278
:104A40006F50C4827050C5827150C6827250C78246
:104A50007350C8827450C9827550CA827850CB8214
:104A60007950CC827A50CD827C50CE827D50CF82DC
:104A70008150D0828250D1828350D2828450D3829E
:104A80008650D4828750D5828950D6828A50D78268
:104A90008B50D8828C50D9828E50DA828F50DB8234
:104AA0009050DC829150DD829250DE829350DF8202
:104AB0009450E0829550E1829650E2829750E382D2
:104AC0009850E4829950E5829A50E6829B50E782A2
:104AD0009C50E8829D50E9829E50EA829F50EB8272
:104AE000A050EC82A150ED82A250EE82A450EF8241
:104AF000A650F082AA50F182AB50F282AD50F38200
:104B0000AE50F482AF50F582B050F682B150F782C9
:104B1000B350F882B450F982B550FA82B650FB8295
:104B2000B750FC82B850FD82B950FE82BC50408321
:104B3000BD504183BE504283BF504383C050448325
:104B4000C1504583C2504683C3504783C4504883F5
:104B5000C5504983C6504A83C7504B83C8504C83C5
:104B6000C9504D83CA504E83CB504F83CC50508395
:104B7000CD505183CE505283D0505383D150548363
:104B8000D2505583D3505683D4505783D550588331
:104B9000D7505983D8505A83D9505B83DB505C83FC
:104BA000DC505D83DD505E83DE505F83DF506083C9
:104BB000E0506183E1506283E2506383E350648399
:104BC000E4506583E5506683E8506783E950688365
:104BD000EA506983EB506A83EF506B83F0506C832B
:104BE000F1506D83F2506E83F4506F83F6507083F2
:104BF000F7507183F8507283F9507383FA507483BD
:104C0000FC507583FD507683FE507783FF50788388
:104C10000051798301517A8302517B8303517C8354
:104C200004517D8305517E8308518083095181831E
:104C30000A5182830C5183830D5184830E518583E5
:104C40000F518683105187831151888313518983B3
:104C500014518A8315518B8316518C8317518D8380
:104C600018518E8319518F831A5190831B51918350
:104C70001C5192831D5193831E5194831F51958320
:104C800020519683225197832351988324519983ED
:104C900025519A8326519B8327519C8328519D83BC
:104CA00029519E832A519F832B51A0832C51A1838C
:104CB0002D51A2832E51A3832F51A4833051A5835C
:104CC0003151A6833251A7833351A8833451A9832C
:104CD0003551AA833651AB833751AC833851AD83FC
:104CE0003951AE833A51AF833B51B0833C51B183CC
:104CF0003D51B2833E51B3834251B4834751B58392
:104D00004A51B6834C51B7834E51B8834F51B98342
:104D10005051BA835251BB835351BC835751BD8309
:104D20005851BE835951BF835B51C0835D51C183CC
:104D30005E51C2835F51C3836051C4836151C58397
:104D40006351C6836451C7836651C8836751C98361
:104D50006951CA836A51CB836F51CC837251CD8321
:104D60007A51CE837E51CF837F51D0838351D183BB
:104D70008451D2838651D3838751D4838A51D5837A
:104D80008B51D6838E51D7838F51D8839051D9833D
:104D90009151DA839351DB839451DC839851DD8305
:104DA0009A51DE839D51DF839E51E0839F51E183C1
:104DB000A151E283A351E383A651E483A751E58384
:104DC000A851E683A951E783AA51E883AD51E9834D
:104DD000AE51EA83B451EB83B851EC83B951ED8302
:104DE000BA51EE83BE51EF83BF51F083C151F183BD
:104DF000C251F283C351F383C551F483C851F58383
:104E0000CA51F683CD51F783CE51F883D051F9833F
:104E1000D251FA83D351FB83D451FC83D551FD8306
:104E2000D651FE83D7514084D8514184D951428410
:104E3000DA514384DC514484DE514584DF51468499
:104E4000E2514784E3514884E5514984E6514A845C
:104E5000E7514B84E8514C84E9514D84EA514E842A
:104E6000EC514F84EE515084F1515184F2515284EF
:104E7000F4515384F7515484FE515584045256849E
:104E800005525784095258840B5259840C525A8443
:104E90000F525B8410525C8413525D8414525E8402
:104EA00015525F841C5260841E5261841F526284BA
:104EB000215263842252648423526584255266847D
:104EC00026526784275268842A5269842C526A8445
:104ED0002F526B8431526C8432526D8434526E8402
:104EE00035526F843C5270843E52718444527284B5
:104EF000455273844652748447527584485276846E
:104F0000495277844B5278844E5279844F527A8436
:104F100052527B8453527C8455527D8457527E84F6
:104F200058528084595281845A5282845B528384BD
:104F30005D5284845F528584605286846252878485
:104F4000635288846452898466528A8468528B844E
:104F50006B528C846C528D846D528E846E528F8411
:104F600070529084715291847352928474529384DB
:104F700075529484765295847752968478529784A9
:104F8000795298847A5299847B529A847C529B8479
:104F90007E529C8480529D8483529E8484529F843E
:104FA0008552A0848652A1848752A2848952A38408
:104FB0008A52A4848B52A5848C52A6848D52A784D5
:104FC0008E52A8848F52A9849152AA849252AB84A3
:104FD0009452AC849552AD849652AE849752AF846D
:104FE0009852B0849952B1849A52B2849C52B3843C
:104FF000A452B484A552B584A652B684A752B784ED
:10500000AE52B884AF52B984B052BA84B452BB84A1
:10501000B552BC84B652BD84B752BE84B852BF8468
:10502000B952C084BA52C184BB52C284BC52C38438
:10503000BD52C484C052C584C152C684C252C78402
:10504000C452C884C552C984C652CA84C852CB84CB
:10505000CA52CC84CC52CD84CD52CE84CE52CF8491
:10506000CF52D084D152D184D352D284D452D3845B
:10507000D552D484D752D584D952D684DA52D78423
:10508000DB52D884DC52D984DD52DA84DE52DB84F0
:10509000E052DC84E152DD84E252DE84E352DF84BC
:1050A000E552E084E652E184E752E284E852E38488
:1050B000E952E484EA52E584EB52E684EC52E78458
:1050C000ED52E884EE52E984EF52EA84F152EB8427
:1050D000F252EC84F352ED84F452EE84F552EF84F4
:1050E000F652F084F752F184F852F284FB52F384C2
:1050F000FC52F484FD52F5840153F6840253F78484
:105100000353F8840453F9840753FA840953FB8446
:105110000A53FC840B53FD840C53FE840E534085CC
:1051200011534185125342851353438514534485CB
:10513000185345851B5346851C5347851E53488588
:105140001F53498522534A8524534B8525534C854B
:1051500027534D8528534E8529534F852B53508512
:105160002C5351852D5352852F53538530535485DD
:1051700031535585325356853353578534535885AB
:105180003553598536535A8537535B8538535C857B
:105190003C535D853D535E8540535F85425360853A
:1051A00044536185465362854B5363854C536485F4
:1051B0004D536585505366855453678558536885AC
:1051C000595369855B536A855D536B8565536C855F
:1051D00068536D856A536E856C536F856D5370850A
:1051E0007253718576537285795373857B537485B9
:1051F0007C5375857D5376857E537785805378857E
:105200008153798583537A8587537B8588537C8541
:105210008A537D858E537E858F53808590538185FB
:1052200091538285925383859353848594538585C6
:105230009653868597538785995388859B5389858F
:105240009C538A859E538B85A0538C85A1538D8555
:10525000A4538E85A7538F85AA539085AB53918510
:10526000AC539285AD539385AF539485B0539585D8
:10527000B1539685B2539785B3539885B4539985A6
:10528000B5539A85B7539B85B8539C85B9539D8573
:10529000BA539E85BC539F85BD53A085BE53A1853F
:1052A000C053A285C353A385C453A485C553A58504
:1052B000C653A685C753A785CE53A885CF53A985C6
:1052C000D053AA85D253AB85D353AC85D553AD8586
:1052D000DA53AE85DC53AF85DD53B085DE53B1853F
:1052E000E153B285E253B385E753B485F453B585F2
:1052F000FA53B685FE53B785FF53B8850054B98578
:105300000254BA850554BB850754BC850B54BD8532
:105310001454BE851854BF851954C0851A54C185CC
:105320001C54C2852254C3852454C4852554C58584
:105330002A54C6853054C7853354C8853654C98528
:105340003754CA853A54CB853D54CC853F54CD85DE
:105350004154CE854254CF854454D0854554D1859F
:105360004754D2854954D3854C54D4854D54D58562
:105370004E54D6854F54D7855154D8855A54D98523
:105380005D54DA855E54DB855F54DC856054DD85D1
:105390006154DE856354DF856554E0856754E1859B
:1053A0006954E2856A54E3856B54E4856C54E58561
:1053B0006D54E6856E54E7856F54E8857054E98531
:1053C0007454EA857954EB857A54EC857E54ED85E6
:1053D0007F54EE858154EF858354F0858554F185A3
:1053E0008754F2858854F3858954F4858A54F58569
:1053F0008D54F6859154F7859354F8859754F98523
:105400009854FA859C54FB859E54FC859F54FD85D9
:10541000A054FE85A1544086A2544186A5544286DC
:10542000AE544386B0544486B2544586B55446863D
:10543000B6544786B7544886B9544986BA544A8602
:10544000BC544B86BE544C86C3544D86C5544E86C0
:10545000CA544F86CB545086D6545186D85452865F
:10546000DB545386E0545486E1545586E254568604
:10547000E3545786E4545886EB545986EC545A86C4
:10548000EF545B86F0545C86F1545D86F4545E867E
:10549000F5545F86F6546086F7546186F854628648
:1054A000F9546386FB546486FE546586005566860F
:1054B00002556786035568860455698605556A86D0
:1054C00008556B860A556C860B556D860C556E8695
:1054D0000D556F860E55708612557186135572865E
:1054E0001555738616557486175575861855768624
:1054F000195577861A5578861C5579861D557A86F2
:105500001E557B861F557C8621557D8625557E86BA
:105510002655808628558186295582862B55838677
:105520002D55848632558586345586863555878631
:10553000365588863855898639558A863A558B86F8
:105540003B558C863D558D8640558E8642558F86BF
:105550004555908647559186485592864B5593867A
:105560004C5594864D5595864E5596864F55978643
:10557000515598865255998653559A8654559B860F
:1055800057559C8658559D8659559E865A559F86D7
:105590005B55A0865D55A1865E55A2865F55A386A4
:1055A0006055A4866255A5866355A6866855A7866C
:1055B0006955A8866B55A9866F55AA867055AB8626
:1055C0007155AC867255AD867355AE867455AF86EF
:1055D0007955B0867A55B1867D55B2867F55B386AA
:1055E0008555B4868655B5868C55B6868D55B78655
:1055F0008E55B8869055B9869255BA869355BB8616
:105600009555BC869655BD869755BE869A55BF86DC
:105610009B55C0869E55C186A055C286A155C3869E
:10562000A255C486A355C586A455C686A555C7866A
:10563000A655C886A855C986A955CA86AA55CB8637
:10564000AB55CC86AC55CD86AD55CE86AE55CF8606
:10565000AF55D086B055D186B255D286B455D386D3
:10566000B655D486B855D586BA55D686BC55D78694
:10567000BF55D886C055D986C155DA86C255DB8656
:10568000C355DC86C655DD86C755DE86C855DF8620
:10569000CA55E086CB55E186CE55E286CF55E386E6
:1056A000D055E486D555E586D755E686D855E786A4
:1056B000D955E886DA55E986DB55EA86DE55EB866C
:1056C000E055EC86E255ED86E755EE86E955EF8626
:1056D000ED55F086EE55F186F055F286F155F386DC
:1056E000F455F486F655F586F855F686F955F7869D
:1056F000FA55F886FB55F986FC55FA86FF55FB8668
:105700000256FC860356FD860456FE8605564087E3
:1057100006564187075642870A5643870B564487E9
:105720000D564587105646871156478712564887AB
:105730001356498714564A8715564B8716564C8779
:1057400017564D8719564E871A564F871C56508745
:105750001D5651872056528721565387225654870B
:1057600025565587265656872856578729565887CF
:105770002A5659872B565A872E565B872F565C8799
:1057800030565D8733565E8735565F87375660875C
:10579000385661873A5662873C5663873D56648720
:1057A0003E566587405666874156678742566887EA
:1057B0004356698744566A8745566B8746566C87B9
:1057C00047566D8748566E8749566F874A56708789
:1057D0004B5671874F567287505673875156748750
:1057E000525675875356768755567787565678871B
:1057F0005A5679875B567A875D567B875E567C87DB
:105800005F567D8760567E876156808763568187A5
:105810006556828766568387675684876D56858767
:105820006E5686876F568787705688877256898727
:1058300073568A8774568B8775568C8777568D87F3
:1058400078568E8779568F877A5690877D569187BE
:105850007E5692877F569387805694878156958788
:105860008256968783569787845698878756998756
:1058700088569A8789569B878A569C878B569D8720
:105880008C569E878D569F879056A0879156A187EC
:105890009256A2879456A3879556A4879656A587B5
:1058A0009756A6879856A7879956A8879A56A98784
:1058B0009B56AA879C56AB879D56AC879E56AD8754
:1058C0009F56AE87A056AF87A156B087A256B18724
:1058D000A456B287A556B387A656B487A756B587F0
:1058E000A856B687A956B787AA56B887AB56B987C0
:1058F000AC56BA87AD56BB87AE56BC87B056BD878F
:10590000B156BE87B256BF87B356C087B456C1875B
:10591000B556C287B656C387B856C487B956C58729
:10592000BA56C687BB56C787BD56C887BE56C987F5
:10593000BF56CA87C056CB87C156CC87C256CD87C3
:10594000C356CE87C456CF87C556D087C656D18793
:10595000C756D287C856D387C956D487CB56D58762
:10596000CC56D687CD56D787CE56D887CF56D9872F
:10597000D056DA87D156DB87D256DC87D356DD87FF
:10598000D556DE87D656DF87D856E087D956E187C9
:10599000DC56E287E356E387E556E487E656E5877B
:1059A000E756E687E856E787E956E887EA56E98743
:1059B000EC56EA87EE56EB87EF56EC87F256ED870A
:1059C000F356EE87F656EF87F756F087F856F187CD
:1059D000FB56F287FC56F3870057F4870157F5878B
:1059E0000257F6870557F7870757F8870B57F98748
:1059F0000C57FA870D57FB870E57FC870F57FD870B
:105A00001057FE8711574088125741881357428814
:105A100014574388155744881657458817574688A2
:105A200018574788195748881A5749881B574A8872
:105A30001D574B881E574C8820574D8821574E883C
:105A400022574F8824575088255751882657528807
:105A5000275753882B5754883157558832575688C3
:105A600034575788355758883657598837575A8882
:105A700038575B883C575C883D575D883F575E8848
:105A800041575F884357608844576188455762880B
:105A90004657638848576488495765884B576688D6
:105AA00052576788535768885457698855576A888A
:105AB00056576B8858576C8859576D8862576E884F
:105AC00063576F8865577088675771886C577288FD
:105AD0006E577388705774887157758872577688B7
